:020000040000FA
:0600000002127E0207CD92
:03002B00020FDDE4
:03003300020EAC0E
:030053000206FCA6
:1000830002075E01010000000000F8FF07FFFF0008
:10009300000504000000030001FFFFFFFF0005301F
:1000A3007500000020FD000206FFFF7A0000000C2F
:1000B3000100001E012100FA00050104010C0002E9
:1000C300016CBC039EBB01040000C814000000E8DF
:1000D300030000FFFF19150188130000E803000067
:1000E3002C012C01BC02A0BB0D00A0BB0D00020221
:1000F30002070401051E02051E020A0A010108087F
:100103000103B80B02803E0102FEFFE8030A05006B
:1001130001FFFF020A011401E002000000050301D0
:10012300010F0300030003000300030003000300A7
:100133000300030005000A00140028004F009E007E
:100143000000AB2E000000007F2D00000000FF0028
:100153000000FF001212AC60461212CA603DE9684B
:100163007008F618F618F618F622748067F712016D
:100173008B090909748067F7221212CA601D1212D3
:10018300AC7005191919801A12116A701F12117EA9
:10019300C37003E6673319191940071818182208A2
:1001A300080874FFF618F618F618F62212117E6086
:1001B3001712134A702192F0121338701950172036
:1001C300F014080808090909E7F61819E7F61819D9
:1001D300E7F61819E7F62212133860E6E869701F8C
:1001E3000808E62480F608E436F618547FB47F0C3A
:1001F300E654806007F6E418F618F622181822E988
:10020300C6CC08C6CD08C6CE08C6CFC0E0E8C0E05D
:10021300EAC0E0EBC0E009E9F809E7FA09E7FBE621
:10022300F918E6F8C3EC98ED99EE9AEBC2E7F5F00E
:10023300EFC2E795F0500E600CEBCFFBEACEFAE984
:10024300CDF9E8CCF8EAA2E7D2E7FAEB33FB13F5F2
:10025300F0EEA2E7D2E7FEEF33FFC5F013A2E730DB
:10026300E601B313C5F0C3C0E0C0F07F00C39BFB3E
:10027300605E9418600F401D14601AD0E023F9D01B
:10028300E0F802035D8AF0E9486003D2F0E4AFF0DE
:10029300FAF9F8803BEB30E40D89F0EA6003D2F021
:1002A300E4AFF0F9CAF8EB30E30D88F0EF6002D267
:1002B300F0AFF0E4CAC9F8EB54076014FBC3EA13C8
:1002C300FAE913F9E813F8EF135002D2E0FFDBED7C
:1002D300D0E0C0E030E739C3E49FFFF5F0EC98FCD1
:1002E30042F0ED99FD42F0EE9AFE42F0D0E0F9D0F3
:1002F300E0F8E5F0607AE923F9EE20E742D80280DE
:1003030067C3EF33FFEC33FCED33FDEE33FE80EADE
:10031300EC28FCED39FDEE3AFED0E023F9D0E0F80D
:100323004002801BC3EE13FEED13FDEC13FCEF1331
:100333005002D2E0FF08B800067F7F74FF802EEFE3
:100343003350178CF020F00260100CBC000C0DBD74
:1003530000080EBE000408E860DFE933E813FFEE8F
:100363002313FE4F4D4C8008E95480FFE4FEFDFC4F
:10037300EE33EF33F47004FCFD7E80D0E0FBD0E07D
:10038300FAD0E0F8D0E0CFC618CEC618CDC618CC48
:10039300C6F9221212CA7004181818221212AC706D
:1003A3000D74FFF61819F61819F61819F622E75402
:1003B3008066F6121338700F12134A70F014F608A1
:1003C300F608F608F680D112134A700CF608F60800
:1003D300768008E6447F80EC121181700C12116D57
:1003E30060BFE65480F6E480BB12116D70051919E5
:1003F3001980A5E869700C763F18768018F618F610
:10040300E8F922E6CDC0E018ECC0E0E633CD33CD09
:10041300D313F6E719FCE7191933CC33C3947F40A0
:100423000ECD9D502408E65480F6E418F6800FF4B0
:10043300043D14501408E6447FF6187680E418F659
:1004430018F6D0E0FCD0E0FD22CCD313CCFD18E4A9
:10045300C6CBC0E018E4C6CAC0E00808ED08C6333E
:10046300E613F618E433C675F003C3CA97CA09CB7B
:1004730097CB199C40047D08802EBD000302053FE5
:1004830016B6FF050606081618C3CA33CACB33CB04
:1004930033CA27CA09CB37CB193CC37D08803E1822
:1004A3007D0820E75CC633C6CA33CACB33CB33DD02
:1004B300F1D5F0EB30E77BCA97CA09CB974ACB1942
:1004C3009C406F4B7025E620E0218066187D08C3B1
:1004D300CA97CA09CB97CB199CD3C633C6CA33CAAA
:1004E300CB33CB3350C9DDE7D5F0E1D3E4C636C611
:1004F30008C636C608C636C608C636C618181880D3
:1005030031C3CA97CA09CB97CB199CB34097C6335B
:10051300C6CA33CACB33CB33DD34D5F02EC6A2E003
:10052300C640C8CA27CA09CB37194A70BECB3CB4E8
:1005330080B90808E63308E633601F181818D0E0BE
:10054300FAD0E0FBD0E0FCD0E0FD22187D08CA27FA
:10055300CA09CB37CB193CD3808013F618E4B67F96
:1005630011F618B6FF0EF618C60470D20808768086
:1005730080CAF618F618F680C5001212CA604F1228
:1005830012AC6012E7548066F612116A70111213EE
:100593004A703B090909F4F618F618F618F6221200
:1005A300117E701512133808080860EAE6447FF6D6
:1005B30018768018E4F618F6221213386016121310
:1005C3004A7012E4F608F608F608E65480F60909BC
:1005D3000918181822EAC0E0EBC0E0ECC0E0EDC057
:1005E300E0E687F0A4FBACF008E687F0A42CFCE47B
:1005F30035F0FA1809E687F0A42C4B60027401CA9F
:1006030035F0FCE433FB09E687F0D2F7A42CCB35B5
:10061300F0FC1908E687F0A42BCC35F0FBE433FD9E
:100623000819E687F0D2E7A42C4ACB35F0CD340085
:10063300FC09E687F0D2E7A42DCC35F0FDE433FACC
:100643000918E687F0D2F7A42CCD35F0CA3400FCA4
:1006530008E687F0D2E7D2F7A42ACC35F07A7E20D9
:10066300E70B0ACB33CBCD33CDCC33CC33CB3350A9
:10067300147004ED30E00ED2F1E4CD3DCDCC3CCC92
:100683003B5005DA05C2F1EB547FC63308E63392DB
:10069300F0FBE73309E733C39A502D2B70190C0D88
:1006A3004C4D70151806E608C333700D20F10AA2ED
:1006B300F013F6E418800B4024E4F630F002768061
:1006C30018F618F618F68024D33B14501074FFA2C2
:1006D300F013F6187680E418F618F6800FA2F013DC
:1006E300F618E63303F618ECF618EDF6D0E0FDD075
:1006F300E0FCD0E0FBD0E0FA22C0E074F1120B681A
:10070300A2AFE433F509D2AF85A708AFA1EF55082F
:10071300FE74105E60061216A175A1EF74085E6088
:10072300081216A775A1F78024EFA2E092F0E5085E
:10073300A2E082F05017906198E0F890063CE0C385
:1007430098A2D265D0335002E8F075A1FE7523005C
:10075300E509A2E092AF7F02020BC7C0E074F21278
:100763000B68A2AFE433FED2AF9061A4E0F8759BAF
:1007730000E59158540860087591F71216F5802327
:10078300E59158541060087591EF1216FB8014E53B
:1007930091A2E092F0E8A2E082F05007E0C2E0F01C
:1007A3001218519061A3E0F8E5E9585404600E1261
:1007B300182775E9FB906193E0A2E640F2752300E8
:1007C300EEA2E092AF7F01020BC7C0E074F2120BFE
:1007D30068A2AFE433FED2AF9061A5E0F8E5BF585D
:1007E3005404600675BFFB12186980D112084430A7
:1007F300F043120889803E8A088B098C0A8D0B7896
:100803000812084420F01430E72B74FFFCFBFA7441
:100813007F8022E4FCFBFA7480801AB48008BC0059
:10082300F2BB00EF800F50EBF9E4C39AFAE49BFBB1
:10083300E49CFCE499C6CC18C6CB18C6CA18C6F902
:1008430022E4C9C608CAC608CBC6D3330308CCC63C
:100853003392F0C3947F402E94184019C9B907040A
:10086300CACBCC225025C309CA33CACB33CBCC3332
:10087300CC33D9F422F4600DC9CCC313CB13CBCA48
:1008830013CAD9F6CC22E4FCFBFA2214FCFBFA22AD
:10089300C3E498F8E499F91208D48026C3E49AFAD9
:1008A300E49BFBE920E7E91208D4E498F8E499F91A
:1008B30022C3E498F8E499F91208D4E498F8E49987
:1008C300F9C3E49AFAE49BFB22EB20E7CFE920E7A4
:1008D300E0B90010BB0008E88AF084F8AAF022E42B
:1008E300FBC8FA22EB70227B10C833C8C933C93363
:1008F3005007C39AC3DBF280069A50012ADBEAC889
:1009030033F4C8C933F4C9FA2275F008E4C833C80C
:10091300C933C933C99AC99B5004C92AC93BD5F005
:10092300ECFBC833F4C8E4C9FA22080808EAC0E0BB
:10093300EBC0E086F0E7A4FA180986F0E7A42AFAE8
:10094300180986F0E7A42AFA180986F0E7A42AFA18
:100953001986F0E7A4FBE5F02AFA190886F0E7A464
:100963002BFBE5F03AFA190886F0E7A42BFBE5F038
:100973003AFA18180986F0E7A4C5F02BFBE43AFA13
:100983001908E7C5F0C6A426F6E5F03BFBE43AFAFE
:100993001886F0E7A4F6E5F00826F6E43B08F6E44B
:1009A3003A08F6D0E0FBD0E0FA22080808E630E780
:1009B3001112112E1209C5080808C64480C618185A
:1009C3001822181818E9799EC608CAC608CBC608A3
:1009D300CCC6C370207996CACBCC7019798ECBCC98
:1009E30070137986CC700EF9802ACA33CACB33CB05
:1009F300CC33CC331930E7F2CCCBCA335014700468
:100A0300EA30E00DE4CA3ACACB3BCBCC3CCC500233
:100A130009C3E913C6CC182313C6CB18C6CA18C614
:100A2300F922E4CFC0E0E4CEC0E0E4CDC0E0E4CC02
:100A3300C0E075F020E626F608E633F608E633F65E
:100A430008E633F6181818EC33FCED33FDEE33FEED
:100A5300EF33FFC3EC9709ED9709EE9709EF971969
:100A63001919400FFFEC97FC09ED97FD09EE97FE6E
:100A7300191906D5F0BFECF709EDF709EEF709EF01
:100A8300F7191919D0E0FCD0E0FDD0E0FED0E0FF6B
:100A9300222521C582C0E0E52234FFC583C0E0E5FD
:100AA30021C3958224F810AF088583228582218093
:100AB30008858322858221D2AFCEF0A3E520F0A35F
:100AC3007808E608F0A3DEFAEFF0A3E58124FAF84C
:100AD300E608F0A3E608F0A3E608F0A30808E60892
:100AE300F0A3E608F0A315811581D0E0FED0E0F86D
:100AF300158115811581E8C0E0EEC0E022121323B1
:100B0300B90003020B52E490050178B47913800213
:100B1300F0A3D8FCD9FA78239000867A01BA0002B0
:100B23008007E493A3F608DAF97AB47B1790008779
:100B330078D179018015E493A3AD82AE838A828B49
:100B430083F0A3AA82AB838D828E83D8E9D9E7751C
:100B530082127583BB7405120FA17582FF75832AF8
:100B63007400120FA1C0D02521C582C0E0E5223454
:100B7300FFC583C0E0E521C3958224F310AF088548
:100B830083228582218008858322858221D2AFC872
:100B9300F0A3E9F0A3EAF0A3EBF0A37908E709F0E7
:100BA300A3D8FAECF0A3EDF0A3EEF0A3EFF0A3D0FB
:100BB300E0F0A3D0E0F0A3D0E0F0A3E520F0A3E5BC
:100BC300F0F0A322852283852182E0C0E0A3E0F92F
:100BD300A3E0FAA3E0FBA37808E0F608A3DFFAE0BA
:100BE300FCA3E0FDA3E0FEA3E0FFA3E0C0E0A3E0DD
:100BF300C0E0A3E0F5D0A3E0F520A3E0A3F5F01057
:100C0300AF088583228582218008858322858221FE
:100C1300D2AFD082D083D0E0F8D0E032FF75F010AD
:100C23008E248F25858229858328852182852283A9
:100C3300E0CEA3E0CF852982852883EBC9EAC8EDFE
:100C4300CBECCAC3E833C8E933C9EA33CAEB33CBC5
:100C5300C3EA9EF527EB9FF526B35004AB26AA27DC
:100C6300EC33CCED33CDD5F0DAAE24AF252212121E
:100C7300CA601C1212AC6017121338700712134AA1
:100C83007001D322C0D012134A7006D0D0B322C34E
:100C93002233D0D0501430E0F6C3E7960809E79624
:100CA3000809E7960809E796B32220E0D5E69708F6
:100CB30009E6970809E6970809E697B322D083D097
:100CC30082ECC0E0EDC0E0E493A3FCE493A3FDED6C
:100CD3004C600D120DE4EC24FFFCED34FFFD80EFBE
:100CE300E493A3FCE493A3FDED4C600D120E81ECA1
:100CF30024FFFCED34FFFD80EFD0E0FDD0E0FCE409
:100D030093A3C0E0E493C0E0221212CA601B121244
:100D1300AC6016121338700712134A600CB322C06A
:100D2300D012134A7005D0D022C32233D0D050132F
:100D330030E0EBC3E7960809E7960809E796080948
:100D4300E7962220E0E4E6970809E6970809E69784
:100D53000809E69722852283852182E0A3FEE0A38A
:100D6300F5207808E0A3F608DFFAE0A3FFE0A3C0CC
:100D7300E0E0A3C0E0E0A3C0E0E0A3C0E0E0A3C0E4
:100D8300E010AF0885822185832280088582218532
:100D93008322D2AFD083D082020FA7D083D082E93F
:100DA300C0E0E493A3C386F0C5F095F0F908E4939B
:100DB300A386F0C5F095F0700BE493A3C3994005A7
:100DC300E9048002A3E475F002A42582F582E5F02C
:100DD3003583F583D0E0F9E493A3C0E0E493C0E066
:100DE30022C0E0C3E49396087401939618400FE47D
:100DF3009366700808740193661870007019A3A3B2
:100E0300C3E49396087401939618A3A3400DD0E00E
:100E1300D0E0D0E0020CFCA3A3A3A3A3A3D0E022C1
:100E23007404800474028000CCC0E0EDC0E0E521CE
:100E3300C39CCCAD2250011D10AF068C218D2280A6
:100E4300068C218D22D2AF120F23D0E0FDD0E0FC1F
:100E53002274028000CCC0E0EDC0E0E521C39CCC4D
:100E6300AD2250011D10AF068C218D2280068C21EE
:100E73008D22D2AF120F01D0E0FDD0E0FC22C0E002
:100E8300C0F088F0E49366700808740193661870E4
:100E930000A8F0A3A3700BD0F0D0E0D0E0D0E00224
:100EA3000CFCA3A3D0F0D0E022C0E074F2120B68D4
:100EB300A2AFE433FED2AFE58BA2E0500579041272
:100EC30015DB758B00C2E8752300EEA2E092AF7FBD
:100ED30001020BC7D083D082CCC0E0E493A36006A9
:100EE300120F631470FAE493A360061210AE147029
:100EF300FAD0E0FCE493A3C0E0E493C0E022CAC0CC
:100F0300E0E493A3C582CCC582C583CDC583F0A39A
:100F1300C582CCC582C583CDC583DAE5D0E0CA22BC
:100F2300CAC0E0E0A3C582CCC582C583CDC583F02A
:100F3300A3C582CCC582C583CDC583DAE6D0E0CA1A
:100F430022C008C3E096F50808A3E096420808A368
:100F5300E096420808A3E09645087001D3D0082222
:100F6300C0E0E493A3D39C5010E493A3C39C400A32
:100F7300D0E0D0E0D0E0020EF4A3A3A3D0E022702F
:100F830009080808226016181818C6C333C608C60D
:100F930033C608C633C608C633C6D5E0EA22C09FA7
:100FA300F59FE473D09F22D083D082C09FE493C087
:100FB300E0740193C0E0740293F59F22C58225215A
:100FC300C582C583352210AF07F5228582218007AC
:100FD300F522858221D2AFC58322C0E0C0D0E8C00C
:100FE300E0A8A8D2AFC2C7752300E8A2E792AFD0AA
:100FF300E0F8D0D0D0E0327404800A740380067421
:101003000280027401C0E0F404121015D0E0121241
:10101300E6222521F58210AF08F521400C15228028
:1010230008F52140021522D2AF8522832200C0D0C9
:10103300252110AF08F521500C05228008F5215019
:10104300020522D2AFD0D022BB0102E722C082C068
:101053008389828A83BB0003E08002E493D083D038
:1010630082226016080808C6C313C618C613C6181A
:10107300C613C618C613C6D5E0EA222521F8E435FF
:1010830022F9222521FAE43522FB222521FCE4352D
:1010930022FD22C3E0C696F608A3E0C696F608A38F
:1010A300E0C696F608A3E0C696F622C0E0E493A352
:1010B3006C7009D0E0D0E0D0E0020EF4A3A3D0E03E
:1010C30022252110AF08F521400C15228008F521B7
:1010D30040021522D2AF22E066701008A3E06670CA
:1010E3000A08A3E066700408A3E06622E7667010AE
:1010F3000809E766700A0809E76670040809E766E5
:1011030022C3E09608A3E09608A3E09608A3E0961E
:10111300A2D265D03322C3E7960809E7960809E708
:10112300960809E796A2D265D03322181818E4C3AB
:1011330096F608E496F608E496F608E496F622C3D3
:10114300E096F008A3E096F008A3E096F008A3E089
:1011530096F022C3E697F60809E697F60809E6979C
:10116300F60809E697F622181818E60846087009E3
:10117300E626087005E633F4220822191919E7094F
:1011830047097009E727097005E733F4220922C3E9
:10119300E493960874019396087402939608740373
:1011A300939622E627F60809E637F60809E637F6A6
:1011B3000809E637F622700422600D18C6C333C649
:1011C30008C633C6D5E0F41822E657F60809E657F1
:1011D300F60809E657F60809E657F622E026F60868
:1011E300A3E036F608A3E036F608A3E036F622E0DD
:1011F30026F008A3E036F008A3E036F008A3E036B3
:10120300F022E056F008A3E056F008A3E056F008F9
:10121300A3E056F022E647F60809E647F60809E692
:1012230047F60809E647F622E056F608A3E056F625
:1012330008A3E056F608A3E056F622600D08C6A2FE
:10124300E713C618C613C6D5E0F322C6F4C608C60C
:10125300F4C608C6F4C608C6F4C622C3E09608A3BB
:10126300E09608A3E09608A3E09622C3E796080950
:10127300E7960809E7960809E7962275D000758175
:101283003F75210175220500020B00600C08C6C3DF
:1012930013C618C613C6D5E0F422E6F008A3E6F099
:1012A30008A3E6F008A3E6F022E7094709C31347BA
:1012B30009336002E733F422E0F608A3E0F608A35B
:1012C300E0F608A3E0F622E6084608C3134608330F
:1012D3006002E633F422800100E9F874FF28F90480
:1012E30070F622CAC0E0E6F0A308DAFAD0E0FA22E8
:1012F300E0F8A3E0F9A3E0FAA3E0FB22E8F0A3E916
:10130300F0A3EAF0A3EBF022EAF0A3EBF0A3ECF0F6
:10131300A3EDF022E0FAA3E0FBA3E0FCA3E0FD22AF
:10132300E5C754F84401F5C77901222521F582E484
:101333003522F58322E62618461846184622C2AF00
:1013430075D69F02000022E727194719471947223C
:10135300120FAA92A903120FAAF2A903120FAA86C7
:10136300AA03120FAA37AB03120FAA88AB03120FFB
:10137300AACCAB03120FAA66AC03120FAAD6AC0316
:10138300120FAA05AD03120FAA0BAE03120FAA3553
:10139300AE03120FAA89AE03120FAA5DAF03120F99
:1013A300AA8BB103120FAA39B203120FAAA6B40370
:1013B300120FAA2BB503120FAA2EB803120FAA5BA2
:1013C300BA03120FAA9FBA03120FAAF8BB03120F94
:1013D300AA0BBC03120FAA48BC03120FAA05BE0333
:1013E300120FAAF7BC05120FAA2BBD05120FAA7E76
:1013F300BD05120FAA81BE05120FAAE4CF04120F76
:10140300AA60D004120FAA93D004120FAAC1D00469
:10141300120FAAFFD004120FAA3CD304120FAA5B27
:10142300D304120FAAA0D304120FAA36D404120FA6
:10143300AA82D404120FAA16D504120FAAEFD50458
:10144300120FAA4BD604120FAAA9D604120FAA1C74
:10145300D704120FAA60D704120FAAB8D704120F29
:10146300AADAD704120FAA6AD804120FAAFBD80467
:10147300120FAA47D904120FAA73D904120FAAB4E0
:10148300D904120FAA4ADB04120FAA36DC04120F86
:10149300AA11DD04120FAA7FFC04120FAAABFC04ED
:1014A300120FAACBFC04120FAAF2FC04120FAA39E2
:1014B300FE04120FAA6CFE04120FAA2BFF04120FD4
:1014C300AAC5FF04120FAA5FCD05120FAA64CD05AA
:1014D300120FAA97CD05120FAA108A05120FAA5F41
:1014E3008A05120FAAA38A05120FAAAD8A05120F45
:1014F300AAB78A05120FAA0A8B05120FAA248C0514
:10150300120FAACE8C05120FAAE88C05120FAAF1AE
:101513008C05120FAA278D05120FAAA98D05120F8C
:10152300AAB9B105120FAA80B205120FAA92B20589
:10153300120FAA02B305120FAAEAC705120FAAFBDC
:10154300C705120FAA99C805120FAAA4C805120F3E
:10155300AABEC805120FAAE77F00120FAAEDFF016A
:10156300120FAACDC805120FAADDC805120FAAF2E1
:10157300C805120FAAA6C905120FAAE5C505120FC1
:10158300AA69C605120FAAD1C605120FAAC87D0003
:10159300120FAADC7D00120FAA527E00120FAAA11D
:1015A3007E00120FAAD67E00120FAAFB7E00120F36
:1015B300AA1E7F00120FAA597F00120FAA867F006E
:1015C300120FAACD7F00120FAAA1C205120FAA28DB
:1015D300C305120FAA31C305120FAA58C305120F70
:1015E300AAA0C305120FAAB7C305120FAAB99B0578
:1015F300120FAAC79B05120FAA409C05120FAA1926
:101603009D05120FAADC9E05120FAA219F05120F3A
:10161300AA469F05120FAAF87F00120FAAE9FD033D
:10162300120FAA21FE03120FAA6FFF03120FAAF3D0
:10163300FF03120FAA008005120FAA2C8005120FB8
:10164300AA968205120FAAD68205120FAA12830543
:10165300120FAA268305120FAA3F8305120FAA3180
:101663008405120FAAE48405120FAAF88405120F49
:10167300AA30FE02120FAA54FE02120FAA6DFE0236
:10168300120FAAABFE02120FAADBFE02120FAA0868
:10169300FF02120FAA12FF02120FAA78FF02120F03
:1016A300AA7BFF02120FAA85FF02120FAA92FF0262
:1016B300120FAA12AF05120FAA32AF05120FAA71A9
:1016C300AF05120FAA8FAF05120FAAAAAF05120F0B
:1016D300AA10B005120FAA1CB005120FAA79B00503
:1016E300120FAA88B005120FAAACB005120FAA6D8B
:1016F300B105120FAA7AB105120FAA8BB105120F09
:10170300AABCCB05120FAA04CC05120FAA30CC0534
:10171300120FAA4E8505120FAAA88605120FAAB6A4
:101723008605120FAAC98605120FAADE8605120FB7
:10173300AAF38605120FAA068705120FAA82870548
:10174300120FAAE78705120FAA6F8805120FAAE7DF
:101753008805120FAAC08905120FAAD08905120F96
:10176300AADF8905120FAA23CB05120FAA47CB05BF
:10177300120FAA6FCB05120FAA97CB05120FAA7FE0
:10178300B605120FAAA6B605120FAAC4B605120F04
:10179300AA33B705120FAA3FAC05120FAA58AC051E
:1017A300120FAA64AC05120FAA78AC05120FAA9601
:1017B300AC05120FAAA0AC05120FAAAAAC05120F12
:1017C300AABDAC05120FAA43AD05120FAAB8AD0509
:1017D300120FAAE7AD05120FAA35AE05120FAA84A0
:1017E300AE05120FAA9FAE05120FAAA9AE05120FDE
:1017F300AABAAE05120FAAFDAE05120FAAA4FF02E4
:10180300120FAAEFFF02120FAA02F304120FAA2E5D
:10181300F304120FAA4BF304120FAA5EF304120F80
:10182300AA79F304120FAAD3F304120FAA01F40442
:10183300120FAA11F804120FAA6FF904120FAAA12A
:10184300F904120FAA04FA04120FAA70FB04120F70
:10185300AA98FB04120FAAADFB04120FAABDFB0446
:10186300120FAAFDFB04120FAA3FFC04120FAA4F8A
:10187300FC04120FAA71C105120FAA8BC105120F26
:10188300AAB3C105120FAACCC105120FAAF0C10554
:10189300120FAA0EC205120FAA25C205120FAA53D0
:1018A300C205120FAA6EC205120FAA3BFF01120F47
:1018B300AA7FFF01120FAA599F05120FAA699F055C
:1018C300120FAA6EA005120FAAA0A005120FAAD08C
:1018D300A005120FAAF3A005120FAA0AA105120F61
:1018E300AA44A105120FAAA9A105120FAAEBA105EB
:1018F300120FAA32A205120FAA5FA205120FAA8A1B
:10190300A205120FAADBBE05120FAAEDBE05120F28
:10191300AA01C005120FAA04C005120FAADFC4054D
:10192300120FAA15C505120FAA2DC505120FAA6F0E
:10193300C505120FAA7FC505120FAAC3C505120F4D
:10194300AACDC505120FAA39F702120FAA7CF70216
:10195300120FAAE1F702120FAA00F802120FAAA2AD
:10196300F802120FAAABF802120FAAFCF802120F28
:10197300AA25F902120FAA32F902120FAAA4F90238
:10198300120FAA32FA02120FAA77FA02120FAAB0A2
:10199300FA02120FAA15FB02120FAA3EFB02120F44
:1019A300AAB5FB02120FAA04FC02120FAA41FC0201
:1019B300120FAA76FC02120FAA88FC02120FAA9A2F
:1019C300FC02120FAAB9FC02120FAAC2FC02120FE8
:1019D300AA83FD02120FAAC6FD02120FAA04FE0279
:1019E300120FAAA8CC05120FAA31C005120FAAD450
:1019F300B805120FAA0AB905120FAA52B905120F98
:101A0300AAABBA05120FAA60AB04120FAA86AC04E4
:101A1300120FAAC2AC04120FAA80AE04120FAAAE10
:101A2300AE04120FAA18B104120FAA58B104120F70
:101A3300AAFAB204120FAA90B304120FAAEAB304CB
:101A4300120FAA7AB404120FAABEB404120FAA008A
:101A5300B504120FAA65B604120FAAE5B704120F54
:101A6300AA26BA04120FAA54BA04120FAA80BA04FF
:101A7300120FAA89BA04120FAAE6BA04120FAA7F98
:101A8300BB04120FAA96BE04120FAA1CBF04120FA6
:101A9300AA79CA05120FAA91CA05120FAA9BCA05F1
:101AA300120FAAF1CA05120FAA119305120FAA2742
:101AB3009305120FAAC89305120FAA079405120FD4
:101AC300AA249405120FAA559405120FAAA29405ED
:101AD300120FAAD69405120FAA119505120FAA0E7A
:101AE3009705120FAA749705120FAAEAC605120FDB
:101AF300AA49C705120FAA87C705120FAAC8C705A7
:101B0300120FAA25B405120FAA69B405120FAA80F1
:101B1300B405120FAADCB505120FAA11B605120FF0
:101B2300AA33B605120FAAACC905120FAABDC9057F
:101B3300120FAAD5C905120FAAF8C905120FAA13C5
:101B4300CA05120FAA48CA05120FAA62CA05120FC4
:101B5300AA6BF901120FAA39FA01120FAA5EFA0150
:101B6300120FAA83FA01120FAAB2FA01120FAAD80E
:101B7300FA01120FAA49FB01120FAAE0FC01120F8E
:101B8300AA9CFD01120FAA5EFE01120FAACAFE0152
:101B9300120FAA04FF01120FAA12FF01120FAA20AB
:101BA300FF01120FAA31FF01120FAAC9C305120FB9
:101BB300AA87C405120FAA008003120FAA0C800380
:101BC300120FAA6E8003120FAA788003120FAA05C0
:101BD3008103120FAA418103120FAA3D8203120F40
:101BE300AA9B8203120FAA3B8303120FAABB830390
:101BF300120FAA8A8503120FAACC8703120FAA1306
:101C03008903120FAA508B03120FAAB88C03120F69
:101C1300AA648D03120FAA539203120FAA499303C6
:101C2300120FAAE19303120FAA069403120FAA9E9E
:101C33009403120FAABC9403120FAA339503120F35
:101C4300AA529503120FAA7F9503120FAA1797039F
:101C5300120FAA389703120FAADE9703120FAA25B1
:101C63009803120FAA999803120FAA279903120F28
:101C7300AA849903120FAAFD9903120FAA7F9B034B
:101C8300120FAAE39D03120FAA6C9E03120FAA9AC6
:101C93009E03120FAAA4D202120FAA2BD302120F71
:101CA300AA48D402120FAA10D502120FAAE7D6022D
:101CB300120FAA20D702120FAAD8D702120FAA1DF9
:101CC300E402120FAABBED02120FAA0FF002120FC9
:101CD300AAAFF002120FAADFF402120FAA0EF50246
:101CE300120FAABBF502120FAAE2A205120FAAA1B4
:101CF300A305120FAA07A405120FAAB6A405120F73
:101D0300AA2F9604120FAA5E9604120FAAD696045F
:101D1300120FAAE59704120FAA419804120FAAAE54
:101D23009904120FAACA9904120FAA1C9A04120F3B
:101D3300AA5F9A04120FAA729A04120FAACA9A04EB
:101D4300120FAA8C9B04120FAA089C04120FAA3F1D
:101D53009C04120FAA779C04120FAA099E04120F67
:101D6300AAE89E04120FAA36A004120FAA19A1040E
:101D7300120FAAA5A104120FAAE5A104120FAA0427
:101D8300A204120FAA4FA204120FAA6FA204120FE9
:101D9300AA08A304120FAA8EA304120FAAE9A3048C
:101DA300120FAA29A404120FAABFA604120FAAD8BD
:101DB300A704120FAA1EA804120FAA13A904120F34
:101DC300AA3BA904120FAA3EA904120FAA48A90408
:101DD300120FAA64A904120FAADEA904120FAA17EC
:101DE300AA04120FAA43AA04120FAA6AAA04120F82
:101DF300AA8EAA04120FAAFFAA04120FAA12AB04F6
:101E0300120FAA41AB04120FAA33CC05120FAA3F3B
:101E1300CC05120FAA73CC05120FAAEA7F00120F8A
:101E2300AA008004120FAA238004120FAA7081044F
:101E3300120FAAB98104120FAA258204120FAA5401
:101E4300EF04120FAA868204120FAAD78204120F7C
:101E5300AA4C8304120FAAD18304120FAAD48304B9
:101E6300120FAA62A903120FAA968404120FAA8260
:101E73008804120FAA2C8A04120FAA7C8A04120F58
:101E8300AA038E04120FAA368F04120FAAB090046D
:101E9300120FAA4D9104120FAA389204120FAA8DA1
:101EA3009404120FAA7BBF04120FAA25C004120FB9
:101EB300AA90C004120FAAABC004120FAA30C10427
:101EC300120FAA5AA203120FAAD1C104120FAA38E1
:101ED300C204120FAAB7C304120FAAE6C404120F56
:101EE300AA6EC504120FAA77C704120FAA24C80446
:101EF300120FAAC8C804120FAA99C904120FAA5430
:101F0300CB04120FAAECCC04120FAA7FCD04120F3C
:101F1300AAA5CE04120FAABCBF03120FAA1FC003A7
:101F2300120FAA67C003120FAAABC003120FAA06AF
:101F3300C103120FAA63C103120FAA9EC103120F9A
:101F4300AA20C203120FAA7AC203120FAAF8C3036C
:101F5300120FAA78C403120FAAD3C403120FAAED57
:101F6300C403120FAA0EC503120FAA68C503120FEA
:101F7300AAE4C703120FAA03C803120FAAF3C803E4
:101F8300120FAA26CA03120FAAA5CA03120FAAE1A7
:101F9300CA03120FAA50CB03120FAA05CC03120FC8
:101FA300AADDCD03120FAAE4CE03120FAA5CD0035D
:101FB300120FAA52D203120FAAC8D403120FAAA255
:101FC300D603120FAA63D703120FAADBD703120F8C
:101FD300AAF2D703120FAAE9D803120FAADDD90375
:101FE300120FAA4CDA03120FAA4DA905120FAAA4C5
:101FF300AA05120FAA63AB05120FAACBAB05120FEA
:10200300AA28A605120FAA43A605120FAA87A6059A
:10201300120FAAADA605120FAAD4A605120FAAEC99
:10202300A605120FAA8EA705120FAAA3A705120FC2
:10203300AAC6A805120FAACFA805120FAAD8A805E9
:10204300120FAAE1A805120FAAEBA805120FAA976F
:102053008E05120FAAA39205120FAAA89205120FBA
:10206300AAAA9205120FAA84BB05120FAAD1CD0505
:10207300120FAAA5CD05120FAA00CD05120FAA10A3
:10208300CD05120FAA819705120FAAEBAC02120F0E
:10209300AA1EAD02120FAA8AAD02120FAA25AE0222
:1020A300120FAAC2AE02120FAA07AF02120FAA2979
:1020B300AF02120FAA42AF02120FAA68AF02120FA9
:1020C300AA8AAF02120FAAC8AF02120FAA0CB0025B
:1020D300120FAA2EB002120FAA90B002120FAA5723
:1020E300B102120FAA0EB202120FAA80B202120F8D
:1020F300AA4BB302120FAA9EB302120FAA04B40290
:10210300120FAA3EB402120FAA90B402120FAAFE33
:10211300B402120FAA69B502120FAA6CB502120F0C
:10212300AAEDB502120FAA84B602120FAA04B702CF
:10213300120FAA23B702120FAA87B802120FAA948A
:10214300B802120FAAA0B902120FAAADB902120F58
:10215300AAB6B902120FAA8EBB02120FAAA8BC021A
:10216300120FAA21BD02120FAA93BD02120FAAB524
:10217300BD02120FAA49BE02120FAA1DC002120FFE
:10218300AAF4C302120FAA08C402120FAA18C402A7
:10219300120FAA22C402120FAA2BC402120FAA34CE
:1021A300C402120FAA3EC402120FAA6BC402120F7A
:1021B300AA94C402120FAA9FC402120FAAC3C40294
:1021C300120FAAE7C402120FAA51C502120FAA974F
:1021D300C502120FAAB4C502120FAA31C602120F0A
:1021E300AA68C602120FAAA7C602120FAAF4C60251
:1021F300120FAA7AC702120FAA48C902120FAACB5A
:10220300C902120FAAAFCA02120FAA16CD02120FE9
:10221300AA6FCD02120FAAB9CD02120FAA14CF02D0
:10222300120FAA49CF02120FAA9BCF02120FAA5074
:10223300D002120FAAFFD002120FAA3CD102120F32
:10224300AAD1D102120FAA3DD202120FAA0B31005A
:10225300120FAA3D3100120FAA6B3100120FAA41CF
:102263003300120FAA213400120FAA793400120F7F
:10227300AAB43500120FAA003600120FAA2939009A
:10228300120FAA1C3C00120FAA6C3D00120FAA02E7
:102293003E00120FAA0E3E00120FAA403E00120F7C
:1022A300AAC33F00120FAA744100120FAA084200EA
:1022B300120FAA4B4200120FAAC94200120FAAE63C
:1022C3004200120FAA164300120FAA4B4300120F2B
:1022D300AA1B4400120FAAC44400120FAA4A4700C3
:1022E300120FAA6A4800120FAA554900120FAAD763
:1022F3004900120FAA0B4E00120FAA484E00120FEC
:10230300AAA04E00120FAAD34E00120FAA3D4F00EF
:10231300120FAA734F00120FAAFE4F00120FAA56F4
:102323005000120FAA2D5100120FAAE65100120FEE
:10233300AA815200120FAA895500120FAAA55600AE
:10234300120FAA485A00120FAA3C5B00120FAA3FB1
:102353005B00120FAA6E5B00120FAA745D00120FCE
:10236300AA4D5E00120FAA905E00120FAAE65F004C
:10237300120FAA256000120FAAAE6000120FAAE284
:102383006000120FAAA76100120FAABF6300120F09
:10239300AA306400120FAA706400120FAAFE640030
:1023A300120FAA206600120FAAE26600120FAAE912
:1023B3006800120FAA016900120FAA156900120F13
:1023C300AA4D6900120FAA7B6900120FAAFA6A00CC
:1023D300120FAA1F6C00120FAA7C6C00120FAA2EF8
:1023E3006D00120FAA556D00120FAA1C6E00120F7A
:1023F300AAB46E00120FAADA7000120FAA0F7100AE
:10240300120FAA727100120FAAA17200120FAA4929
:102413007300120FAA7A7300120FAA927300120F9D
:10242300AA217400120FAAD57600120FAAAD780064
:10243300120FAAC97800120FAAE57800120FAAB3E7
:102443007900120FAAA67D00120FAA74BC01120F05
:10245300AAA6BC01120FAA95C001120FAAE1C001DE
:10246300120FAA27C101120FAAC9C101120FAA256F
:10247300C201120FAA6AC201120FAAB1C301120F3D
:10248300AAC5C401120FAAB4C801120FAA38C90100
:10249300120FAA45CA01120FAAA1CA01120FAA91CB
:1024A300CC01120FAA06CD01120FAA10CD01120FF3
:1024B300AA1DCD01120FAA48CD01120FAA2FCE01DA
:1024C300120FAAD9CE01120FAA57CF01120FAA7762
:1024D300CF01120FAAA0CF01120FAAC2CF01120F70
:1024E300AA22D201120FAAE8D201120FAA2DD301F8
:1024F300120FAAAAD301120FAA5BD401120FAA8D3D
:10250300D401120FAAD3D401120FAA0FD501120FAF
:10251300AA5FD501120FAAB3D501120FAA09D601DA
:10252300120FAA55D601120FAAC2D601120FAA3D45
:10253300D701120FAA08D901120FAA08DA01120F44
:10254300AA2DDB01120FAA6CDE01120FAA7FE10193
:10255300120FAA3CE201120FAA80E201120FAA3065
:10256300E401120FAA44E401120FAA4EE401120F70
:10257300AA58E401120FAA64E401120FAA80E4012D
:10258300120FAA2BE501120FAA6AE501120FAA7412
:10259300E501120FAA7EE501120FAAEEE501120F63
:1025A300AA39E601120FAA4EE701120FAAAAE70100
:1025B300120FAA2BE801120FAAEAE801120FAAF3DD
:1025C300E901120FAA27EB01120FAA15EC01120F52
:1025D300AA2DEC01120FAA88EC01120FAAA6EC0196
:1025E300120FAAEEEC01120FAA15ED01120FAAB0F9
:1025F300ED01120FAA76EE01120FAA08EF01120FD6
:10260300AA82EF01120FAA9CF001120FAA49F1014D
:10261300120FAA71F201120FAAC1F201120FAA2519
:10262300F301120FAA87F301120FAAB5F301120FD8
:10263300AAD9F301120FAA0EF401120FAA3FF40153
:10264300120FAA72F401120FAA92F401120FAAFA3E
:10265300F401120FAAEEF501120FAA49F601120FA7
:10266300AA72F601120FAAFAF601120FAA7DF70158
:10267300120FAAA8F701120FAA8DF801120FAAD4FC
:10268300F203120FAA0CF303120FAA2DF303120F76
:10269300AA6FF303120FAAD1F303120FAADBF303FA
:1026A300120FAAEBF303120FAA26F403120FAA06C2
:1026B300F803120FAAF3F903120FAAD9FB03120F9F
:1026C300AA70FC03120FAA12FD03120FAA2481029F
:1026D300120FAAA28102120FAAFE8102120FAA49A7
:1026E3008202120FAA648202120FAA8F8202120FB1
:1026F300AAAC8202120FAAB88202120FAA4F840256
:10270300120FAA688402120FAAED8402120FAA0004
:102713008502120FAA1F8502120FAAC38502120F88
:10272300AA448702120FAAF78802120FAA8D890200
:10273300120FAA908902120FAA008A02120FAA1E70
:102743008A02120FAAB58A02120FAAFD8A02120F79
:10275300AA008B02120FAAC68B02120FAA338C0295
:10276300120FAA598C02120FAAE48C02120FAA02AA
:102773008D02120FAA488D02120FAAFC8D02120FAE
:10278300AA468E02120FAA758E02120FAAD28E02C9
:10279300120FAA078F02120FAA338F02120FAA4138
:1027A3008F02120FAA8E8F02120FAAFE8F02120F30
:1027B300AA479002120FAA939002120FAABF900287
:1027C300120FAACA9002120FAAE89002120FAAD3FC
:1027D3009102120FAADD9102120FAA189202120F90
:1027E300AA289202120FAA319202120FAA8592020C
:1027F300120FAA999202120FAAC89302120FAADF0C
:102803009302120FAAF49302120FAA829402120FD8
:10281300AAC79402120FAA539502120FAA5E950239
:10282300120FAAA09602120FAABB9602120FAA07B2
:102833009702120FAA769702120FAAAF9702120FEE
:10284300AAC99702120FAA0B9802120FAADB9A02C7
:10285300120FAA889B02120FAAF59B02120FAA3528
:102863009E02120FAA4D9E02120FAA509E02120F31
:10287300AA5C9E02120FAA709E02120FAA789E02F1
:10288300120FAAAB9E02120FAAAD9F02120FAA3417
:10289300A002120FAAA4A002120FAA26A102120FCD
:1028A300AAE7A102120FAA06A202120FAAA7A20266
:1028B300120FAA04A302120FAA07A302120FAA342B
:1028C300A302120FAA49A302120FAABDA302120F59
:1028D300AA0CA502120FAA12A602120FAA9DA60203
:1028E300120FAAB8A702120FAA80A802120FAAB148
:1028F300A802120FAAD4A802120FAADDA802120F6F
:10290300AA0CA902120FAA9CA902120FAA52AA0288
:10291300120FAAC7AA02120FAA6EAB02120FAAE3E2
:10292300AB02120FAA1AAC02120FAA58AC02120F72
:10293300AA8EAC02120FAAB6A803120FAA4AEF047A
:10294300120FAAE3EE04120FAACFEE04120FAA2C61
:10295300EE04120FAA2CED04120FAA45EC04120F79
:10296300AA35EA04120FAA43E904120FAAE1E80404
:10297300120FAAC0F203120FAAB6F203120FAA4F44
:10298300A603120FAA558404120FAA4BF203120FC7
:10299300AA7CF003120FAAB7A103120FAA71A10315
:1029A300120FAA3AF003120FAA3EEF03120FAA1254
:1029B300EF03120FAAC9EE03120FAA0AEE03120FB6
:1029C300AAF6EA03120FAAB7E803120FAA84E803D0
:1029D300120FAA2BE803120FAABEE703120FAA7D58
:1029E300E703120FAAB6E603120FAA50E603120F6B
:1029F300AAEFE503120FAA8FE503120FAA66E403F9
:102A0300120FAAFAE303120FAA52E303120FAA4DFD
:102A1300E303120FAA41E303120FAA74DF03120F99
:102A2300AA3CA103120FAA09A103120FAAF4A0033F
:102A3300120FAAC9A003120FAABCF204120FAA888C
:102A4300F204120FAA31F204120FAA4EDF03120F7F
:102A5300AAECDE03120FAA8DDE03120FAA4EDE03C9
:102A6300120FAA9FF004120FAA3BDE03120FAA3023
:102A7300DE03120FAAFFDD03120FAAECDB03120F12
:102A8300AA5FDB03120FAA06A303120FAA1BDB0321
:102A9300120FAA8AC104120FAAEFDA03120FAA7146
:102AA300E804120FAA44E804120FAA11E804120F53
:102AB300AAE9E704120FAA8AE704120FAA6AE70435
:102AC300120FAA35E704120FAAE1E304120FAAC9F1
:102AD300E104120FAAB3DF04120FAA33DF04120FAB
:102AE300AADFDE04120FAA93DE04120FAAEBDD04A1
:102AF300120FAAF1EF04120FAA83820400000080D0
:102B0300FB000022E4738F000100451887000100D9
:102B13004318350004000C18250002001018260085
:102B230002001218270002001418280001001E18C2
:102B3300290001001F1884000400A4158600010069
:102B4300C2172A00010020182B00010021182C00B5
:102B5300010025182D000800B0152E0001002618CD
:102B63002F00010027183000010028183100010050
:102B7300291832000100B81533000100B9153400DB
:102B830001002A1836000100BA15380001002B187D
:102B9300390001002418830002004118630001007A
:102BA300C6156400010022186500010023186D009A
:102BB3000100C71571000800A81566000100401840
:102BC300430001003118440002003218450001009F
:102BD300341846000200351847000800BE154800A7
:102BE300010037184B000100381804000100441895
:102BF300A1000100481837000100471888000100B0
:102C030046183C000100BB153D0001002C1849008B
:102C13000200391867000100C8154D0002003B1877
:102C23004E0001003D184F0002003E183E00010017
:102C3300301851000100BC15520001002E1853003A
:102C430001002F1854000100BD1500000000000012
:102C530000013636010100010201000103010001F8
:102C63000401060605020000070100340801000FF5
:102C7300090401010D0100FF0E0800001702000006
:102C8300190100FF1A0100011B0100FE1C010008CD
:102C93001D0200001F0100012001000121020000AC
:102CA3002301000F24020000260100012701000870
:102CB300280200FF2A0100072B0102402C0100001B
:102CC3002D0100012E0100012F0100FF30010B1D1A
:102CD300310800003A0100083B01000F3C010001EC
:102CE3003D0100FF3E0400004204000046040000D2
:102CF3004A0400004E040000520400005604000081
:102D03005A04000000000000200172BC0000010012
:102D1300200173BC0000020020016EBC0000030010
:102D230020016FBC0000040042012CBB0000050021
:102D330042011DBB000006004201EABA0000070081
:102D4300300170BC000000404201EABA0000FDFF00
:102D530021016ABC010020002005CA1701002100DF
:102D63002005CB17010000022105CC170204000047
:102D7300290598140504000021059A140103710321
:102D830001030103010301030103220302030103FE
:102D93001003000300030003000300030003000308
:102DA3004203000324030603000300030403120386
:102DB3002503230325032303040304030003000360
:102DC30000034403000300032303000365032100FE
:102DD300350381030003050300030003000300031D
:102DE3002503230303027102300160021102700202
:102DF3000102020202028002100261023A00410053
:102E03006302730272026202430200021302380079
:102E13000002000204021202000200020002000289
:102E230004020402370037003C0244020002390066
:102E3300000200026502000235028102000205025F
:102E430082028302000201017101010101011101EA
:102E530001013101010101018001100161013B0008
:102E63001400630173017201620143010001130144
:102E730006013D01350004011201000100010001BA
:102E8300000104010401330133013C014401320117
:102E930036000001000165010001350081010001D8
:102EA300050182018301000103007100300160000C
:102EB30011007000310220035004800010006100F3
:102EC30000001400630073007200620043000000FE
:102ED30013000600000000000400120000000000C0
:102EE3000000000004000400370037003C024400E7
:102EF30000000000000000006500000035008100B4
:102F030000000500000083000000360001000600F9
:102F130000000F000000000000000000000000009F
:102F230003FFFF00000403FFFF0000FFFF0FF40196
:102F33000005C4040320000100000B000000000092
:102F430000000003010F000000000000000000006B
:102F5300000000000000000000000000000000006E
:102F63000000000000000000711C8F1C771CD51BA3
:102F7300000000000000000000000000000000004E
:102F83007D1CD51B00000000831CD51B0000000026
:102F930000000000891CD51B000000000000000099
:102FA300000000000000000000000000000000001E
:102FB300000000000000000000000000000000000E
:102FC300000000000000CF1E0100CF1E0200451EBE
:102FD3000280F92A03004B1E0400511E0480571E71
:102FE30005005D1E0600691E31007B1E3300811E35
:102FF3003400871EFFFF00000300030004000800E5
:1030030010001F003E007B00F600EC01D703AF0762
:103013005D0FB91E713D000007ECFDFDFDECDCDC2E
:10302300CCBCACAC9C9C8C7C7C6C6C5C5C5C4C4C7D
:103033003C3C2C2C1C1C03EAF5E5D5D5C5B5A59560
:10304300958585757565655555454535352525152D
:1030530015050AC324028D240599240793240C75AE
:10306300240D8124FF000000160F00000B150B0236
:103073000002220F3300000E0F5A69674265654153
:103083006C6C69616E63653039D0D1D2D3D4D5D637
:10309300D7D8D9DADBDCDDDEDF3030161819202390
:1030A3001A1C1E3000034D4C4651181A2505020008
:1030B3000119161816161823030030301718192192
:1030C300301B1D1F30003C40423A3F3F392F4730F1
:1030D3000C0E020B040B0A0708000F020402010185
:1030E30001010902E803000000BE040A01002400F4
:1030F3000300E80304090F03100F030A0C041E085E
:1031030028020C0508151E05C082C0831213FB900C
:1031130015F17465F0A37422F09015F3746BF0A3AA
:103123007422F09015F57471F0A37422F09015F7E2
:103133007477F0A37422F0025E4674F7120A949037
:1031430015E5E4F0E99015E4F07CBE7D157AE67BA5
:1031530015121AFD901837E09015EEF09015EF74E4
:10316300A8F0A374150240D374F0120A94EAFEEB9C
:10317300FF548070030232DC9015E412416870033F
:103183000232D5EA241B1259D3707CEA241F125948
:10319300D364137002A3E0706E8A828B8312332A86
:1031A3009015FF124F65750A00750B00800D123FD5
:1031B300A9127045121A01AA0EAB0FEA4B60488A96
:1031C300828B83E0650C7004A3E0650D702C8A820A
:1031D3008B83A3A3A3A3E0F50EA3E0F50FE50A45B4
:1031E3000B8A828B83A3A3A3A360C31242AB850A7A
:1031F30082850B83A3A3A3A380B78A0A8B0B8A823E
:103203008B83124F6180B4E508242A1259D3FCE55D
:10321300082402F8E43509F9E8FAE9FB9015FF12EE
:103223003411A3A3E06402703C8A828B83124F653E
:10323300800B88828983A3A3A3A31242ABE84960CE
:103243001F88828983E06A7003A3E06B70E488823D
:103253008983A3A3E06C70DA90183D125D03806B41
:10326300ECF91222A1850882850983E06401704F7D
:10327300E50824181233131210061265ED120E23FB
:10328300E5082412123313121006E50812415C12EA
:103293001002E508240B1265F1120E27E508241726
:1032A3001240F9E5082402FCE43509FDE508241978
:1032B300FAE43509FB122AD5740A121030800CE0A7
:1032C30064027007AA08AB0912237FAA08AB09128C
:1032D300196BEEFAEF6480802DEA5402600C9018AB
:1032E300507401F0EA6402FA8023EA5408601A1267
:1032F300229BEA4B700B9016011264C87A081233B2
:1033030020EE6408FAEFFB80047A007B00026C77FE
:10331300F582E43509F583E0F50A780A22FB901576
:10332300E4E0F9121ACD22A3A3E0F50CA3E0F50D16
:10333300227B009015E4E0F9121AC174042274F49C
:10334300120A948A088B098A828B83A3A3A3124D42
:103353005D12410438F583E02409FA126C0F7003FF
:103363000234048A828B837402124DD285088285CB
:103373000983123411E8F0A3E91268898A828B83E6
:10338300A3A3A3A3A3A3A3A3F0E5082403F8E4350D
:10339300091234061241043AF583E08E828B83A32B
:1033A300A3A3A3F0EE2409FAE43FFB8E828F83A349
:1033B300A3125FB5F5838882E0A2E58E828F83A393
:1033C300A3A3A3A3500474018001E4F0E50824033C
:1033D300F5828983124F65EA1254E63BF583126B3B
:1033E300D6120FFE1241033B1260A78E828F83A376
:1033F300A3127D85121030EEFAEFFB9015E4126CE8
:103403005C8016F98882F583E0FAA3E0CA221251A0
:1034130002A3A32274021210307F04020D5874F227
:10342300120A948A088B09ECFAEDFB740E12132E20
:10343300E0FC1214318A0C8B0DAE0CAF0DEA4F6019
:1034430030AC08AD0912141FE96026AC08AD09EED3
:10345300FAEFFB121425E970148E828F83124298BF
:10346300FAEFFB121419AA08AB0912144979008068
:103473000279B402505174F0120A9474F61210C413
:10348300EAFEEBFF8C088D09750FB3852182852237
:1034930083E4F0750E008002050E90310AE493F880
:1034A300E50EC39840030235A0AA0E7B0012146DEB
:1034B3008A0A8B0BEA4B60E08A828B83A3A31235C3
:1034C300A728F0F8C3EE98EF940050CC7C157D004C
:1034D3007900AA08AB09121953850A82850B83A3C5
:1034E300A3A3A3127082E0F8EEC3982925E0F8E4C1
:1034F30033F9E50A28F582E50B39F583A3A3A3A3E2
:10350300A3A312410EA3125B2A8A0C8B0DAC0CAD44
:103513000DAA08AB09121AFD850A82850B83A3E065
:103523006401700A1265ED74011241208044740134
:1035330012108E850A82850B83124F63121455E98C
:10354300603D740912132EE0C0E01265EDD0E0F087
:10355300740912132EE064037013740112108EE5C4
:1035630008240BFAE43509FB121AFD8012740112C8
:10357300132E1242ABE508125B1035091270438516
:103583000A82850B831265F9124120A3A3E0C0E0F0
:10359300E50824141265F1D0E0F0750F00A90F744B
:1035A3000A026C74A3A3A3E0F8852182852283E039
:1035B3002274F7120A94E9FE8A828B83A3A3A3A33E
:1035C300A3A3E0540860338A828B83A3A3A3A3A39A
:1035D300A3E0540260218A828B83A3A3A3A3A3A3A2
:1035E300A3A3A3E06406600F74E96E600A74CD6E52
:1035F300600574F06E700312228302495074F01256
:103603000A9474EF1210C4740F12132E1263AC7465
:103613000812132EE9F0ECFEEDFF740512132E12BF
:10362300471812493CA3E0F912143D740612132EF5
:103633001263AC740612132E12557770030238BB53
:10364300124148E0FA740612132EE0F91221C31254
:10365300391BF8A3E0F9E84970030238BBEE2403F1
:10366300F50AE43FF50BEE2406F508E43FF5097C83
:1036730000850882F583124F65850A82850B83E0F6
:10368300F9121443740312132E1263AC850A828554
:103693000B83E0C0E0852182852283123914D0E0B8
:1036A30012568CF9852182852283123FB01251DE96
:1036B3001235AAFAA3E0CA2407F582E43AF583E8AF
:1036C300F0A3E41263B72406F582E438F583E41229
:1036D300704F124D51120FFEEE1241043F1260A7BC
:1036E300740312132E124D5D2409127D7F121030C4
:1036F300742912132E12707C12340B12569F3A1235
:103703007043742B12132EE0C0E08521828522833F
:1037130012553ED0E0F0740212132EE4F074251219
:10372300132E78081212BB023812740312132E12CE
:10373300606F8882F583123903A3A3A3125B35FB61
:1037430012145B850E82850F83A3EAF0A3EBF0745A
:103753000312132E123914A3123903125D44A2E685
:10376300500F850E82850F83A3A3A3A3A3E0D2E109
:10377300F0740512132EE0706B850E82850F83A300
:103783001242AB90163FE0687003A3E06970558561
:103793000E82850F83A3A3A31240E3750C00780C5C
:1037A3001210067808120FFA742912132EE0F50C82
:1037B300780C121006742712132E120E2790164C33
:1037C300120E277900741912132E124F351223C7C4
:1037D300740A121030850E82850F83A3A3A3A3A3BB
:1037E300E04405F0740212132EE004FC8E828F83F2
:1037F300124F5F8E828F83A3A3A3E0F91214437445
:103803000312132E1263AC740212132EE004F0742D
:103813000312132E1255776067740212132EE0FA07
:10382300740612132E1242ABC3EA98E499505174F2
:103833000212132E123BED852182852283E028F8A4
:10384300A3E039F9E8240FF50EE439F50F850E826C
:10385300F583E4F0740312132E12390E640160032E
:1038630002372D740512132E7401126C62F0740367
:1038730012132E125E36123C10E8F0A3E902375100
:10388300852182852283124F651221C98521828574
:103893002283120E27742612132EE0FD74251213B1
:1038A3002EE0FC740A12132EE0F9EEFAEFFB12225B
:1038B3007D740212103080438E828F83A3A3A3E012
:1038C300C0E0740C12132ED0E0F0126ACBE0C0E01B
:1038D300740D12132ED0E0F0740612132E125577C6
:1038E3007009740E12132E74B98007740E12132EFE
:1038F3007410F074091210861223C17411026C74CF
:10390300E0850E82850F83A3A3A322E0125664E011
:1039130022E0125664A3A322852182852283EAF042
:10392300A3EB1255802274F0120A9474E11210C4AE
:10393300740412132EE9F0740312132EECF07402C4
:1039430012132EEDF08A0E8B0F742F12132E1233D7
:103953002CAA0CFB1221B7740112132EE9F0AA0C46
:10396300AB0D1221BD740112132EE07003023BE86C
:10397300852182852283E480158E828F83A3A3A36E
:10398300A3A3E0D2E3F0852182852283E004126BB6
:10399300BAF8852182852283E0C3984003023BDF86
:1039A300740112132EE07003023BDF85218285220E
:1039B30083123BEDE50C28F8E50D39F9E8240FFEF9
:1039C300E439FF8E82F583A3A3A3A3A3E0A2E0407F
:1039D300B5750800750A08750B00740212132EE002
:1039E30060037508207C087D007900740512108639
:1039F3001219538E828F83E0603E90168FE064012C
:103A0300701AE508D2E3F508750B10123BFD12138B
:103A13002EE8F0A3E9125A2874FF807643080C7548
:103A23000A0C8E828F83A3123C0812704574051210
:103A3300132E74FFF0A3805A740412132EE060094E
:103A4300E508D2E6F508750A0A8E828F83A3E0643F
:103A5300FE7003A3E0F47030741212132E74041278
:103A63006617F8741D12132EE8124DD27412121039
:103A7300861220E57D007C007900741512132EAAAE
:103A830082AB83121EB7800B123BFD12132EE8F09C
:103A9300A3E9F0740712132EE508F012413FC0E0CA
:103AA300740912132ED0E0F0740A12132E7401F06D
:103AB3007405121086122385741112132EE060030D
:103AC300023BBD740D12132E1256878E828F83A371
:103AD300A3A3A3F0740D12132E124DA0E50AF0A3B5
:103AE300E50BF0740312132EE0C0E0124D31D0E069
:103AF300125D44601190168FE0C0E0740D12132E16
:103B0300124D7BD0E0F0740D12132E1242AB850CD4
:103B130082850D83A3A3A3A3A3123BF6241C1263E4
:103B2300A612705F123BF8125CF639126AEAC0E023
:103B3300124D18D0E0126BAFC0E0740D12132E12A9
:103B4300485ED0E01268B0C0E0740D12132E124824
:103B530054D0E0F0740D12132E123C08123BF624DD
:103B63002A1263A6850E82850F83A3A3A3A3A3A30F
:103B7300A3A3E012639F12412EC0E0124840D0E09D
:103B8300F0740D12132E124F65850E82850F83126A
:103B93006BC52428F582E43B127043124137126B44
:103BA300D6120FFE1260A0EA1263383B127D831215
:103BB3001030740512108612238B8E828F83A3A379
:103BC300A3A3A3E0D2E0F0741112132EE06003026A
:103BD300397C740112132EE0140239887900AA0C7F
:103BE300AB0D122289741F026C74E075F007A4F800
:103BF300A9F022A3A3124F69E8228E828F83A31216
:103C030042AF740522E0123C10A3A3A322F8A3E061
:103C1300F9850E82850F83A32274F0120A9474E847
:103C23001210C4E9852182852283F08A0E8B0F8AC4
:103C3300828B83A3A3A3A3A3A3A3A3E0F91221E1EC
:103C43008A088B09EA4B7003023CF9E50E1254FA19
:103C53001241571240EE852182852283E0600302E0
:103C63003CFC7C04850E82850F83A3A3A3A3A3A39B
:103C7300A3A3E0F91221E7EE4F607B8E828F83A32B
:103C8300A3A3A31242AB740712132E1264DD1242D4
:103C9300AB740912132E124E02C0E0741112132ECC
:103CA300D0E012688EA3A3A3A3A3A3A31242AB7471
:103CB3000F12132E127045741212132EE4126C6A33
:103CC300C8241FF582E438F58312606BC4131354C0
:103CD30003FC70027C048E828F83E0F97808121053
:103CE30002742059FD744059F9740312108612228C
:103CF3007D7402121030026C727C08850E82850F6F
:103D030083A3A3A3A3A3A3A3A3E0F91221E78B0B8C
:103D1300EA4B7003023C7AEE4F60DB8521828522F9
:103D230083E0F50C780C121006850882850983A3BD
:103D3300A3A3A3A3A3A3E0F50C780C1210068A8215
:103D43008B83A3A3A3E0FB8A82850B831278A28AC9
:103D530082850B83E0FA8E828F83A3A3E0F9122A74
:103D6300DB7402121030023C7E74F7120A9474FA68
:103D73001210C4E9FE780179017F00800379000FF6
:103D83001250E1E0FCEFC39C5026EF75F007A4FC52
:103D930085F008AD08EA2CFCEB3DFD1246D0E0A20D
:103DA300E050DA540C60D6E0A2E250D3780080CF22
:103DB3008A828B83A3A3A3A3A3A3E0703DE9A2E01C
:103DC300400574016E70338A828B83A3A3A3A3A3DC
:103DD300A374011240C0E0C0E0740312132ED0E0BC
:103DE30012472FE0C0E0740412132ED0E0F07405E4
:103DF30012132EE812600A1223C1740602494DC041
:103E030082C0837901122289025E4674F4120A94F5
:103E1300EA4B9018506019E4F08A088B09F50AF50B
:103E23000B7808120FFA7A02123334121030800A18
:103E33007401F07A027B0012332102341C74F012F5
:103E43000A9474F31210C4740312132EE4F0A3F053
:103E53009015FF1240EE740112132EE4F0A3124DDD
:103E6300D704F0901639E0A2E35003023F33124027
:103E7300B4740912132E1212FF740912132E780848
:103E83001212BB9016017808121096740512132EA5
:103E9300780812129D123FB7740512132E78081278
:103EA300125E50077A017B00023FA4740512132EA1
:103EB300780C1212BB90183CE0F509780C790812C3
:103EC3000A25A80CA90D90183DE0C398E499500366
:103ED300E08001E8852182852283F0740912132E84
:103EE30078081212BBC008C009C00AC00B740512BF
:103EF300132E780C1212BB123FB7780C7908120AF2
:103F030025E4F50AF50BD00FD00ED00DD00C780CAC
:103F13007908121156901601780C12129D80111215
:103F23003FA9127045EEFAEFFB121A01AE08AF0972
:103F3300EE4F60658E828F831235A7C398502DEEA6
:103F43002403F8E43FF9E0FA88828983E0C39AF016
:103F53006023740312132E124411740112132EEEF4
:103F6300F0A3EF1264F8FEA3E0FF80C48E828F8378
:103F7300A3A3A3E4F08E828F83127D3C74011213FA
:103F83002E1255778E828F83A3A3A3A3609112640D
:103F9300D112132E123FB08089740312132E124FC5
:103FA30065740D026C741242AF9015FF2212609675
:103FB300A3A3A32290183B127D44E4F50AF50B2238
:103FC30074F0120A948A088B09890A7800790090A0
:103FD30015FF1240EEFBEE4B601E088E828F83A30B
:103FE300A3A3A3124F2F601008E87001098E828FDC
:103FF300831240EAEA4F70E390183E124F65C3E81C
:104003009AE99B40030240A77A061240AAA80CA98A
:104013000DEA4970030240A78A828B83E508F0A367
:10402300E5091240C9E50AF090183D1250E9124023
:10403300C0A3E4F0A3F09015FF124F2F600D8E8202
:104043008F83A3A3A3A312704580179015FF12704B
:1040530045901639E0A2E340091240B490160112CC
:1040630012FF901639E0A2E3503A7A087B009015CC
:10407300E4E0F9121AD3EA4B4C4D702890183BE058
:10408300F508A3E085080CF50DE4F50EF50F780CA3
:10409300120FFA7A087B009015E4E0F9121AC7743C
:1040A30004121030026C777B001219FB8A0C8B0D03
:1040B30022121AE5EAF8EBF9ECFAEDFB221240C4FE
:1040C300221240C9A322F08A828B83A3A322E5088C
:1040D300F0024950F08E828F83A3A3A3A3A3A3224C
:1040E3001259E1A3A3F022A3A3A3A3E0FEA3E0FF3D
:1040F300227F05020D58F582E43509F583E0F922A4
:10410300EA124108222410F582E422124116A3A3E5
:10411300A3A3221242B38508828509832212412474
:1041230022F0850A82850B83A3A322E50E241112B4
:104133004154E022E50E240E12415422E50E2410D0
:10414300124154E02212414C22EE1241083FF58302
:1041530022F582E4350FF58322240FF50AE43509AD
:10416300F50B780A22E0F912197D8A088B09EA4BCC
:104173002274F2120A94890B8A088B098A828B8330
:10418300124F651222ADEA4B600479B8806A12229D
:10419300B9E9F89030FBE493F9E8C399400479B2A4
:1041A30080567A151240AAAE0CAF0DEA4F7004790F
:1041B3001080458A828B83E4F0A31240C9E50BF09B
:1041C300750A007808120FFE7C127D00EA240312A0
:1041D3006B811210309016051255777008901605F2
:1041E300800C1242AB888289831241FE70F4EEF098
:1041F300A3EFF01222CB7900025051124F69EA4B20
:104203008882898322C082C08390160580048C82B1
:104213008D831278A3EC4D60288C828D83A3A3E059
:1042230069600574FF6970E68C828D83A3A3A3E0A4
:104233006A7003A3E06B70D6EC2403FAE43DFB80C1
:10424300047A007B00025E4674F7120A94E9FD7457
:10425300FE6D70047C0180027C0090160580096D60
:1042630070027C0188828983125577601F88828956
:1042730083A3A3A3E06A7003A3E06B70E7ECA2E05F
:1042830088828983A3A3E050D6F9800279FE02498C
:1042930050EEF9800CA3A3127D44EE227402121097
:1042A300307F02020D58F5831242AF221242B3222D
:1042B300E0F8A3E0F9221242B38E828F8322121018
:1042C300307F03020D58C082C083790090160580A9
:1042D3000109E0FAA3E08A82F583E582458370F160
:1042E300025E4674F6120A94E4F508F5097808129A
:1042F30010029030FBE49375F013A4A9F012440666
:104303001270A3121030E9FE74096E70031222C5F5
:1043130002429474F6120A9474FE1210C485218228
:10432300852283E4F0A3F0A821A9228808890978CB
:10433300081210027508027509007808121002129B
:104343006D1412103002429F74F5120A9474EB122A
:1043530010C4852182852283E4F0A3F090160580A2
:10436300748E828F83A3A3E0C0E0740212132ED055
:10437300E0125A28A982AA8389088A09750A007853
:1043830008120FFE7C127D00740612132E12706841
:10439300121030740212107E8808890978081210EE
:1043A30002750813750900780812100274041213B9
:1043B3002E12551A75F013A4F8AAF075F013E9122A
:1043C3004402126D1C12103085218285228312440F
:1043D300118E828F831240EEEE4F7085A821A922A1
:1043E300880889097808121002750802750900788F
:1043F30008121002126D1412103074150242C1A477
:104403002AF9E82402FCE439FD7A427B0022E02405
:1044130001F0A3E03400F02274F4120A9474EB1256
:1044230010C47E007F00A821A92288088909780882
:104433001210027508028E0978081210027C007DA2
:10444300007A421270AF121030E9706C8E088056F9
:10445300740212107E880A890B780A121002750AF8
:1044630013750B00780A121002E50875F013A4F80F
:10447300AAF075F013E5091244021270B11210305C
:10448300E9701B740312132EAA82AB8374021213F6
:104493002EE0F91222A7E970050EEE70010F050850
:1044A300E508700205098521828522831242ABC388
:1044B300E50898E509994098EEFAEFFB7415023484
:1044C3001974F6120A948C828D83A3A312471DF0EC
:1044D300EA12633E3BF583E0C0E01246DAD0E0F037
:1044E300EA241DF582E43B1242A91246BE12471884
:1044F300F0A3F0EA241FF582E43BF5831240EEECCF
:104503001246B13DF583EEF0A3EFF01246B73BF54B
:10451300831246E8A3A3A3A3A3A3EEF0A3EF125F22
:1045230099FE8C828D8312472774035EFEC3940326
:1045330040030246A4EE600874026E60030245C99C
:104543008C828D83E0540CFE740C6E70030246085B
:10455300E0A2E4400D88828983E08C828D83A312DC
:10456300473D74086E60030246081246C87401F0A2
:104573008A828B83A3A3A3A3A31259EE70148C8204
:104583008D83E0440C12472FA3A31246E8EEF0A359
:10459300EFF08C828D83E0A2E4402B88821246F6F2
:1045A30012470B500109F5821246F6A3A3A3A3A356
:1045B300A3F0A3EF1247378C828D83A3A3A3F0E864
:1045C3002403F850010988828983E0C0E0EC2411B8
:1045D300F582E43DF583D0E01247278C828D83E09A
:1045E300A2E7507588828983E0FE8C828D8312470F
:1045F3003D74FC5E700C8C828D83A3E054036403D2
:10460300701E0246A41246C8E4F0740C6E600302E6
:10461300457388821246FC12470B500109024595E7
:104623008C828D83A3E05403603288828983E0C047
:10463300E0EC1246E23DF583D0E012473E8C828DDA
:1046430083E054036402701488828983E0C0E0121B
:1046530046D0D0E012473E8003A3E4F0EC1254E6C8
:104663003D127043EC2410FEE43DFFEA241DF58265
:10467300E43BF583E0F5088E828F83E0C398250839
:10468300F508F0EA2417F8E43BF98882F583E0C3E0
:104693009508C0E01246BED0E0125F99C39508505A
:1046A3000A1246BEE4F01246DAE4F00242A42415EC
:1046B300F582E422EA240DF582E422EC240DF5824E
:1046C300E43DF58322EC12569F3DF58322EC24143E
:1046D300F582E43DF58322EC1241083DF583222463
:1046E30013F582E422E0FEA3E0FF8C828D83A3A373
:1046F300A3A3221246FCA3A3228983E0F508A3E027
:10470300FFE5088C828D8322A3A3A3A3F0A3EFF07C
:10471300E82402F82212471DA322E4F08C828D8341
:10472300A3A3A322124745A882A983221240C4A3AC
:10473300A3A3A322124745A3E022A312474508A936
:104743008322125FA2A32274F4120A9474F3121048
:10475300C48A0A8B0BECFEEDFF8C82F583E0540CCC
:10476300F508E0A2E75006E508D2E7F508E508D228
:10477300E1F5081259EE7006E508D2E4F508E0A267
:10478300E55006E508D2E5F5087C087D007900AA26
:1047930021AB22121953740212132EE50812704929
:1047A300C0E0740312132ED0E0124DD7E50AF0A334
:1047B300E50BF0740512132E1268B512132EE07078
:1047C30077740812132E124D5D125F8B381268D066
:1047D300C0E0740812132E12485ED0E01268B0C015
:1047E300E0740812132E124854D0E0F07408121328
:1047F3002E12484AE0124D85124E0612639FEE2494
:10480300111259BAC0E0124840D0E0F0EE2414125D
:1048130059BAC0E0740812132E124D5D2435F58287
:10482300E438F583D0E0124DAAC0E0740812132EC9
:10483300124D61D0E0126609740D023419E8243276
:10484300F582E439F583221242B9A3A3A3A3A3A358
:1048530022124D71126AAF38F58322124D7124264C
:10486300F582E438F5832274F7120A947E008A8273
:104873008B83A3A3A3A3A3A3A3A3A3E064046003C1
:1048830002492C125697E0600302492C1254F93B5B
:10489300125575700302492C88828983E0540360A2
:1048A3000302492CE812569F39F583E0FA8C828D76
:1048B30083A3A3E0FBA3E0CB2411F582E43BF583C0
:1048C300E06A706588828983A3A3A3A3A3A3A3A398
:1048D300A3124930E06A7003A3E06B704C888289AD
:1048E30083A3A312493CE0FFA3E0CF24061259BAE5
:1048F3006A7003A3E06B703188828983A3A3E0F815
:104903008C828D83A3A3E0F9A3E0F5838982A3A31B
:10491300E06860138C828D83A3A3A3E0F58389826F
:10492300E0540C640470027E01EEF98020124934D5
:1049330022124F6D8C828D8322A3A3124934A3A329
:1049430022740C12132EE0F9740D1210307F010241
:104953000D5874F6120A9474FC1210C4EAFEEBFFAD
:10496300ECFAEDFB8C82F583A3E0540360169015FB
:10497300FB12557760597900EEFCEFFD1261961238
:104983002B07804B852182852283EEF0A3EFF07401
:104993000212132E124DCCAC21AD227AE37B2212EC
:1049A300250B8A088B09A808A909EA4960218A828C
:1049B3008B83A3A3A3A3A3A3A3A3A37406F07A0047
:1049C30088828B83124D5D12635FE0F91224697450
:1049D300040242A174F2120A9474F31210C4EAFEA0
:1049E300EBFF8A82F583A3A3A3A3A3A3A3A3A3A3F8
:1049F300E0F50A901850E0700579BA024D15750874
:104A030001750900750C00750D007C087D007900A7
:104A1300AA21AB22121953740512132E7401124DDD
:104A2300DF54046012740212132EE0D2E6124DDF3B
:104A330054087003750803E0541060067440450879
:104A4300F508E054086022740212132EE044C012E9
:104A53004DDF5420600A740312132EE0D2E0800865
:104A6300740312132EE0D2E1F0EE24151259BA1298
:104A73004D457003740169700674084508F5088E86
:104A8300828F83A3A3A3A3A3A3A3A3E070161225DA
:104A9300658521828522831263AC740212132EE092
:104AA300D2E28030640F7010740212132E124DE79D
:104AB30074044508F508807F8E828F83A3A3A3A384
:104AC300A3A3A3A3E064028E828F83700A12707C77
:104AD300E8F0A3E9F08060A3A3A3A3A3A3A3A3E0A7
:104AE3006403700DAC21AD22EEFAEFFB12231980A3
:104AF300468E828F83A3A3A3A3A3A3A3A3E06401EE
:104B0300703590168FE06010740212132E124DE769
:104B1300750910750AFF8018740212132EE0440CF5
:104B2300124DD774FDF0A374FFF074044508F50823
:104B33008E828F8312332CEE24151259BAA2E050C1
:104B43003F740212132EE0540C701B8E828F83125B
:104B53004F65121F83E9700579BB024D157402126C
:104B6300132EE0D2E5F0EE24151259BAA2E050104C
:104B7300740212132EE0540C64047004E0D2E5F0C6
:104B8300EE24111259BAC0E0740412132ED0E012AD
:104B930068B712132EE06003024D0E740812132E31
:104BA300124DA0E508F0A3E509F0124D3BE0C0E08B
:104BB300124D31D0E0F0124D22E0C0E07408121320
:104BC3002E124D5D1246E238F583D0E0124E066494
:104BD30001701190168FE0C0E0740812132E124D6D
:104BE3007BD0E0F0740812132E124D9B124D2CFA59
:104BF300E8241CF582E439F583EA124DD2EE24153C
:104C0300FAE43FFB8A82F5831278A3E8125CF63953
:104C1300F583124DCCEE241C1259BAC0E0124D1884
:104C2300D0E0125E3C124D45700374016970137439
:104C33000812132E125687FAEE241D1259BAF912CE
:104C430021ED8E828F83A3A3A3A3A3A3A3A3A3E096
:104C5300C0E0740812132E12485ED0E0F0740812FC
:104C6300132E124854E50AF0740812132E12551A23
:104C73002428F582E439F583E50CF0A3E50D124D04
:104C8300B2124D85125A3312639FEE124D2CC0E0BF
:104C9300E82433F582E439F583D0E0F0EE241B12E7
:104CA30059BAC0E0740812132E124D61D0E0F0EE31
:104CB300241A1259BAC0E0740812132E124D5D243F
:104CC30032F582E438F583D0E0124DAA124D511229
:104CD3000FFE126AB51278A3740B12132E124D5DD8
:104CE300242F127D7F121030EE24151259BA54402E
:104CF300601290161B125577600AAA21AB2212612B
:104D030096122B07AA21AB2212238B740C12132E9B
:104D1300E0F902504CE82420F582E439F58322EED1
:104D23002419F582E43FF58322126AC4E022E824C1
:104D330012F582E439F58322EE2418F582E43FF577
:104D430083225480F8A3E05401F974806822F508A3
:104D5300A3E0F509750A00780822124D7122124D5D
:104D6300712434F582E438F58322A3A3A3A3124D5F
:104D73007522E0F8A3E0C822124D711246B138F54E
:104D83008322FAA3E0FBE8242AF582E439F583EAD7
:104D9300F0A3EB22A3A3A3A31242AFEE2212551E4C
:104DA3001254FE39F58322F0EE2413125A3B22F0FB
:104DB300EE240D125A3B22E0FC8A828B83E02CFC0A
:104DC300A3E03400FD8A828B83ECF0A3EDF022F0A4
:104DD300A3E4F022F085218285228322F0EE2415BC
:104DE300125A3B22E0D2E3F0124DEF228E828F83E0
:104DF3001242B3852182852283E8F0A3E9F022E8F9
:104E0300F0A3E91264F2E02274F7120A948A828B07
:104E130083A3E0640170047E6380027E648A828BD4
:104E230083E060087905124E3F24F3FE901637E0C5
:104E33006007F9124E3F24F2FE02492C122433E993
:104E4300F8EEC3982274F6120A9474FE1210C48505
:104E530021828522831263ACE9FEECFAEDFB900517
:104E6300C21255776032A821A922880889097808D7
:104E73001210027D01740E12132EE0FCEEF9900560
:104E8300C2126380122B077402121030EA4B6004C3
:104E93007900800679B2800279B602429F74F712D4
:104EA3000A94E9FE9015F1125577601F74091213E5
:104EB3002EE0F5087808121006EEF99015F112634A
:104EC30080122B077401121030800279B602495008
:104ED30074F7120A948908ECFEEDFF79B5E508240E
:104EE3005E602014600624F86034803D9005C4128F
:104EF3004F2F60351270C0122B078E828F8312637F
:104F0300AC80249015F31278A3EC4D601CEEFCEFFB
:104F1300FD9015F3126380122B07E9F9800B9015AE
:104F2300EF124F35121AFD7900024950124F69EA08
:104F33004B221278A7EEFAEFFB2274F7120A94E9D8
:104F4300FE79B574AB6E700B9015EF124F65121AA4
:104F5300FD79000249508E828F83A3A3A3A3A3A349
:104F6300A3A3124F6922124F6D22E0FAA3E0FB22A2
:104F730074F1120A94EAFEEBFF8C0A8D0B7508019B
:104F830090163FE06E7003A3E06F700C125040AABE
:104F93000AAB0B121AFD805E12256BEE6A7002EFEC
:104FA3006B7009AA0AAB0B122571804AAC0AAD0BD0
:104FB300EEFAEFFB1220C1E9F508901843E07036D2
:104FC300122A0FE97030E508702C90160FE06E700E
:104FD30003A3E06F7020EE4F601C750C07750D1670
:104FE300750E00780C120FFE7C087D00AA0AAB0B2D
:104FF30012706C121030A90802799F74F2120A948D
:10500300EAFEEBFF8C088D09750A01125040EEFA97
:10501300EFFB121AF7E96401701190163F1242ABCD
:10502300850882850983127045800EAC08AD09EEB0
:10503300FAEFFB1220C7E9F50AA90A801112255FCE
:105043008A0C8B0DAC0CAD0D22740D1210307F0643
:10505300020D5874F6120A94EAFEEBFF7A0D7B00F8
:105063001219FBEA4B6062EE2424126D49F0EE2420
:1050730025126D49A312510E126D4FA3A3126AE2BA
:105083001250E9F0EE1250CF1250FEE8F0A3E912ED
:1050930051251250F6127045EE1250D8126BA5A38B
:1050A300A3A3A3F0EE24331259BAC0E01250E1D007
:1050B300E01268D41250F6A3A3A3E8F0A3E91251B7
:1050C3001DC0E0125697D0E0F00242A4242AF582D4
:1050D300E43FF58322242EF582E43FF58322EA128E
:1050E3005B103BF583221250ED22E08A828B83A36F
:1050F300A3A322126C04A3A3A3A32212510222127C
:1051030042B38A828B83A3A3A3A322F01251132257
:10511300EE2426F582E43FF58322F0EE2432125A80
:105123003B22F0EE242C125A3B2274F4120A94749C
:10513300FE1210C4ECFEEDFFEC24161259BA6405FE
:105143007010EC2406FCE43FFD122313E970030204
:1051530051D9AC21AD22126DFE121F8985218285A2
:105163002283125577606B8E828F83E064017058BF
:10517300E875F009A4F8AAF075F009E9A42AF9740E
:105183006828F8740339F9E8FAE9FB8882F583782B
:10519300081212BBEE12527B12125E402785218247
:1051A300852283124D9B1259C81251DE78081212C0
:1051B300BB90BBFA78081211DF8A828B83780812BE
:1051C300129D800A79A28010EE240F12703F79009D
:1051D300800679A1800279C8023417124DFCEE12C1
:1051E3006AD02274F2120A948A0C8B0DECFEEDFF46
:1051F300EC1259C8E4F0A3F090BBBA78081212BBC2
:10520300EC12527B1210DA6067EC240E1259C17053
:105213003478B3901636E07028901668E064017015
:1052230020EC24111259BAF912241B8B09A909EE97
:105233001254FA3F1263AAEA4960047800800278A4
:10524300A18808802EE060046402700A122325E915
:10525300F5087007801DE064037010EEFCEFFDAAF3
:105263000CAB0D121FADE9F50880087508A180038A
:105273007508A3A908025051126AD078082274F065
:10528300120A9474F51210C4EAFEEBFFEA240AFC36
:10529300E43F8C82F583127D40125504740312108F
:1052A3008E8A828B831261A0E9700302536A7401B0
:1052B30012108E7403121086121F89740112132E9A
:1052C300125577700302536AE875F009A4F8AAF03F
:1052D30075F009E9A42AF9746428FC740339FDE51F
:1052E30008240E1265F1E4F00412132E1242ABE50A
:1052F300081254FA35091270438C828D831212F30B
:10530300E50824121265F11212FF90BBFA78081215
:1053130012BB8C828D8378081211F28C828D837874
:105323000C1212BB90BC0A78081212BB780C7908D5
:10533300120A25E5084509450A450B702A7401122E
:10534300132E12551A75F009A4F8AAF075F009E99D
:10535300A42AF9746C28F582740339F5837401F077
:105363007A007B081255278E828F83A3A3A3A3A35E
:10537300A3A3A3A3A3E02406FCA3E03400FD8E8231
:105383008F831261A01268C2603EEE240A1254ECAD
:10539300124DA07468124DD2E81254E639F58374A5
:1053A30002F09016211212F38C828D8312639912EC
:1053B3005F8B3CF5831212FF90BBFA78081212BB85
:1053C30090162178081211F2125562705D9015EF54
:1053D300125512A3A3A3A3A3A3A3A3A3A3125FC1C1
:1053E300121AF7E97010125F7F9015EF125F917038
:1053F300051268C260348E828F83A3A3A3A3A3A3E1
:10540300A3A3A3A3125512124F65121FB3E9601190
:105413008E828F83A3A3A3A3A3A312554EE4F0A369
:10542300F08E828F83125534E4F0125562600302CA
:1054330054E18E828F83A3A3A3A3A3A3127D3C90E5
:105443001636E060030254D6901668E064016003E8
:105453000254D6750A3A750B00780A1210027402C8
:1054630012107E880A890B780A12100212733B12FB
:105473001030E9705BE508240E1265F174011255D2
:105483007CC0E0E50824111265F1D0E0F0E50824C2
:105493000F1265F1743A124DD290161D1212F3E5F4
:1054A3000824121265F11212FF90BBFA7808121247
:1054B300BB90161D78081211F290BBFA78081212ED
:1054C300BB90161D78081210DA700812552380035A
:1054D3001255041255627006125E8274A1F0740BA9
:1054E300026C74240EF582E422F8E43FF9E8FCE947
:1054F300FD8882F58322EA1254FE22240FF582E40A
:1055030022E5081254FE3509F583E4F0A3F02212D4
:1055130078A78E828F832212551E221242B3E8226D
:105523007A007B029014C8E0F91219A7228A828BB1
:1055330083A3A3A3A3A3A3A3A3A3A31255422212AA
:105543004D75240EF582E438F58322A3A3A3A31299
:10555300555622124D75240FF582E438F583228EB9
:10556300828F83A3A3A3A3A3A3124D6D240FF5825C
:10557300E438F58312551E492212558022F0852105
:1055830082852283E02274F6120A94EAFEEBFF7A04
:10559300237B001219FBEE240AF508E43FF5098585
:1055A30008821263AA7C237D0079001219538508AF
:1055B30082850983125577700302564AEEFAEFFB90
:1055C30012233112556260748E828F8312567D646A
:1055D300018E828F83A3A3A3A3A3A3700712567381
:1055E300740E802112557770101268C2700B8E8270
:1055F3008F83A3A3E0A2E05007125669740D8005C0
:1056030012566974051268D4540364017007125664
:10561300517405800B901637E0C0E0125651D0E06C
:1056230012568CF58388821259E78508828509838F
:10563300124D5D12633E38F583E9800E850882853D
:1056430009831264238003126366F00242A48E82EC
:105653008F83A3A3A3A3A3A3A3A3A3A312566322EA
:10566300E0126385A3228E828F83A3A3A3A3A3A3A4
:10567300124D6D12634438F58322A3A3A3A3A3A3FE
:10568300A3A3A3A3125542E02212569022126E1333
:10569300F8A3E022EA12569F3BF58322240CF582FD
:1056A300E42274F1120A9474E41210C48A0C8B0D70
:1056B3008C088D097A237B001219FB8A0A8B0BAEA7
:1056C3000AAF0BEA4F70030259A212634AE508249A
:1056D300151259D3687003A3E0698E828F83700417
:1056E300740280027401F0E508240DF8E43509F929
:1056F3008882F583E0FAC3E49AFA95E0FB1259CF66
:105703002AFAA3E03BFB8E828F83A3A3A3A3125F9A
:10571300A88E828F83A3A3F0EE2420F582E43FF5C5
:1057230083E4F0EE2421F582E43FF583E4F0EEFA1E
:10573300EFFB1223E58508828509831259EE700970
:105743008E828F83A3740580069016371259DCF07E
:10575300EE2417F50AE43FF50B8E828F831259E787
:10576300E9850A82850B83F0EE2416F8E43FF9E518
:1057730008240EFAE43509FB88828983124DBAE5C1
:10578300082410FAE43509FB850A82850B83E0FCC3
:1057930088828983E0F88A828B83E0C398C39CF86C
:1057A300125A28F0EEFCEFFDAA0CAB0D12232BE9E5
:1057B300F50B8E828F83E064027006125F7F1259AD
:1057C300ACE50B6003025999750C00750D00901838
:1057D30043E064016005E06402703F1259BE600853
:1057E300EE24211259C170328E828F83A3A3A31298
:1057F300636C1259F4EE24161259BA125A1DFAE4C4
:1058030039FB1240ACEA4B6011126BCE120FFE1241
:105813005A02AA0C12706C121030EEFAEFFB12232C
:10582300F1E9F50B901843E064016008E06402605D
:105833000302598CE9700302598CE50C450D700382
:105843000259998003850E0B1259BE600BEE242179
:105853001259C16003025992850B0E850C08850D00
:1058630009750A007808120FFE125A028E828F837E
:10587300A3A3A3A3127D85121030EE24201259BADC
:10588300600D1259C77468124DD2EE24208015EEB4
:1058930024211259BA60151259C77403F0A3740175
:1058A300F0EE2421F582E43FF583E4F0EEFAEFFB1A
:1058B3001223F1E9F50B70907C137D0079007409D4
:1058C300121086121953741A12132E7401125A33BA
:1058D30064687002A3E0704F8E828F8312554EE08E
:1058E300640560030258487C0879FF8E828F83A386
:1058F300A3A3A3E0242A125FC41219DDE9700302F3
:1059030058487C087D0079FF7401121086121953E0
:10591300740112108E7A007B0079AB12230D741977
:1059230012132E74FC80151259C7E064037004A38C
:10593300E064017008741912132E74FFF0E4F50883
:10594300F5097808121002740212108E74131213E0
:105953002EAA82AB831264A912103085218285227C
:1059630083E0602B740912107E8808890978081275
:10597300100275081375090078081210027C007D67
:1059830000126D1C1210308006E50C450D6007AA4D
:105993000CAB0D121A01EEFAEFFB121A018003751C
:1059A3000B10A90B741C02799CEE2406FAE43FFB4E
:1059B300121AFD22EE240C125A3B22EE2420125A14
:1059C3003B640122EE1254FE3FF58322E508240EC8
:1059D300F582E43509F583E0221259E1A322E08E32
:1059E300828F8322A3E0F912243322E0540364015B
:1059F300221259F822E0FAE82AF8E43400F9228E58
:105A0300828F83A3A3A31263701259F8EE24161294
:105A13005A3B125A1DFCE439FD22FAE82AF8E4390C
:105A2300F9E8240422125A2C221268E3A3A3A32226
:105A3300F0125A3822EE240FF582E43FF583E02278
:105A43007901020FA774F4120A94EAFEEBFF8A822B
:105A5300F583A3A3A3A3A3A3A3A3124D5D2424F5BA
:105A630082E438F5831259EE702E8A828B831256A4
:105A73007D7025125B16E06405701D125B16A3E0B2
:105A8300F874016860057406687007125530740273
:105A930080051255307403F0EA240A126417126366
:105AA30080E4F0EA2408F8E43F1234062431F58256
:105AB300E43AF583E0C0E01270B7A3A3D0E0125B31
:105AC30035CA242EF582E43AF583E0C0E01270B7BC
:105AD300A3A3A3D0E012605BC8125B10381242A9E3
:105AE3001270B7125B2A8A0A8B0BAC0AAD0B8508BE
:105AF30082850983125FC1121AFD85088285098395
:105B0300124F651223F1126412F002341C240BF5B8
:105B130082E4228A828B83A3A3A3A3A3A3A3A312B6
:105B230068A9F583888222A3A3A3A3124DFC12259F
:105B33005F22125F9DFAA3E022025A43C082C08310
